{
  "contractName": "fundForFloodVictims",
  "abi": [
    {
      "inputs": [],
      "stateMutability": "nonpayable",
      "type": "constructor"
    },
    {
      "anonymous": false,
      "inputs": [
        {
          "indexed": true,
          "internalType": "uint256",
          "name": "_candidateId",
          "type": "uint256"
        }
      ],
      "name": "occurEvent",
      "type": "event"
    },
    {
      "inputs": [
        {
          "internalType": "string",
          "name": "name",
          "type": "string"
        },
        {
          "internalType": "string",
          "name": "mobile",
          "type": "string"
        }
      ],
      "name": "DonorRegistration",
      "outputs": [],
      "stateMutability": "nonpayable",
      "type": "function"
    },
    {
      "inputs": [
        {
          "internalType": "string",
          "name": "mobile",
          "type": "string"
        },
        {
          "internalType": "string",
          "name": "zone",
          "type": "string"
        }
      ],
      "name": "Donate",
      "outputs": [],
      "stateMutability": "payable",
      "type": "function",
      "payable": true
    },
    {
      "inputs": [],
      "name": "getDonationInfo",
      "outputs": [
        {
          "internalType": "uint256",
          "name": "",
          "type": "uint256"
        },
        {
          "internalType": "uint256",
          "name": "",
          "type": "uint256"
        },
        {
          "internalType": "uint256",
          "name": "",
          "type": "uint256"
        },
        {
          "internalType": "uint256",
          "name": "",
          "type": "uint256"
        }
      ],
      "stateMutability": "view",
      "type": "function",
      "constant": true
    },
    {
      "inputs": [
        {
          "internalType": "address",
          "name": "addr",
          "type": "address"
        }
      ],
      "name": "getDonorInfo",
      "outputs": [
        {
          "internalType": "string",
          "name": "",
          "type": "string"
        },
        {
          "internalType": "string",
          "name": "",
          "type": "string"
        }
      ],
      "stateMutability": "view",
      "type": "function",
      "constant": true
    }
  ],
  "bytecode": "0x608060405234801561001057600080fd5b5073eeeee2ac81be99e404727e74dd760a4b9e3733216000806101000a81548173ffffffffffffffffffffffffffffffffffffffff021916908373ffffffffffffffffffffffffffffffffffffffff160217905550738a0dc8b5604292c301b410c15b5f6a965ddb0c32600160006101000a81548173ffffffffffffffffffffffffffffffffffffffff021916908373ffffffffffffffffffffffffffffffffffffffff16021790555073732f350e3556c44463a0f6adf8d6c4156e593b28600260006101000a81548173ffffffffffffffffffffffffffffffffffffffff021916908373ffffffffffffffffffffffffffffffffffffffff1602179055506000600481905550611aad806101266000396000f3fe60806040526004361061003f5760003560e01c806302e8e773146100445780633779ee9e1461006d5780637cfa5f7e14610089578063c46a60a5146100b7575b600080fd5b34801561005057600080fd5b5061006b60048036038101906100669190610f34565b6100f5565b005b61008760048036038101906100829190610f34565b61044f565b005b34801561009557600080fd5b5061009e610a23565b6040516100ae9493929190610fc5565b60405180910390f35b3480156100c357600080fd5b506100de60048036038101906100d99190611068565b610ba3565b6040516100ec929190611114565b60405180910390f35b6000339050600360008273ffffffffffffffffffffffffffffffffffffffff1673ffffffffffffffffffffffffffffffffffffffff16815260200190815260200160002060020160009054906101000a900460ff161561018a576040517f08c379a000000000000000000000000000000000000000000000000000000000815260040161018190611197565b60405180910390fd5b60008054906101000a900473ffffffffffffffffffffffffffffffffffffffff1673ffffffffffffffffffffffffffffffffffffffff168173ffffffffffffffffffffffffffffffffffffffff16141580156102345750600160009054906101000a900473ffffffffffffffffffffffffffffffffffffffff1673ffffffffffffffffffffffffffffffffffffffff168173ffffffffffffffffffffffffffffffffffffffff1614155b801561028e5750600260009054906101000a900473ffffffffffffffffffffffffffffffffffffffff1673ffffffffffffffffffffffffffffffffffffffff168173ffffffffffffffffffffffffffffffffffffffff1614155b6102cd576040517f08c379a00000000000000000000000000000000000000000000000000000000081526004016102c490611229565b60405180910390fd5b6000835111610311576040517f08c379a000000000000000000000000000000000000000000000000000000000815260040161030890611295565b60405180910390fd5b6000825111610355576040517f08c379a000000000000000000000000000000000000000000000000000000000815260040161034c90611301565b60405180910390fd5b604051806060016040528084815260200183815260200160011515815250600360008373ffffffffffffffffffffffffffffffffffffffff1673ffffffffffffffffffffffffffffffffffffffff16815260200190815260200160002060008201518160000190816103c7919061152d565b5060208201518160010190816103dd919061152d565b5060408201518160020160006101000a81548160ff021916908315150217905550905050600160046000828254610414919061162e565b925050819055506004547fa218adab91868fa076ed6f246e9c9cb94aa1a01da578970a22d3bd2d2dc65cc160405160405180910390a2505050565b600282604051602001610462919061169e565b60405160208183030381529060405260405161047e91906116fc565b602060405180830381855afa15801561049b573d6000803e3d6000fd5b5050506040513d601f19601f820116820180604052508101906104be9190611749565b6002600360003373ffffffffffffffffffffffffffffffffffffffff1673ffffffffffffffffffffffffffffffffffffffff16815260200190815260200160002060010160405160200161051291906117f9565b60405160208183030381529060405260405161052e91906116fc565b602060405180830381855afa15801561054b573d6000803e3d6000fd5b5050506040513d601f19601f8201168201806040525081019061056e9190611749565b146105ae576040517f08c379a00000000000000000000000000000000000000000000000000000000081526004016105a59061185c565b60405180910390fd5b60026040516020016105bf906118c8565b6040516020818303038152906040526040516105db91906116fc565b602060405180830381855afa1580156105f8573d6000803e3d6000fd5b5050506040513d601f19601f8201168201806040525081019061061b9190611749565b60028260405160200161062e919061169e565b60405160208183030381529060405260405161064a91906116fc565b602060405180830381855afa158015610667573d6000803e3d6000fd5b5050506040513d601f19601f8201168201806040525081019061068a9190611749565b036106fb5760008054906101000a900473ffffffffffffffffffffffffffffffffffffffff1673ffffffffffffffffffffffffffffffffffffffff166108fc349081150290604051600060405180830381858888f193505050501580156106f5573d6000803e3d6000fd5b506109d6565b600260405160200161070c90611929565b60405160208183030381529060405260405161072891906116fc565b602060405180830381855afa158015610745573d6000803e3d6000fd5b5050506040513d601f19601f820116820180604052508101906107689190611749565b60028260405160200161077b919061169e565b60405160208183030381529060405260405161079791906116fc565b602060405180830381855afa1580156107b4573d6000803e3d6000fd5b5050506040513d601f19601f820116820180604052508101906107d79190611749565b0361084a57600160009054906101000a900473ffffffffffffffffffffffffffffffffffffffff1673ffffffffffffffffffffffffffffffffffffffff166108fc349081150290604051600060405180830381858888f19350505050158015610844573d6000803e3d6000fd5b506109d5565b600260405160200161085b9061198a565b60405160208183030381529060405260405161087791906116fc565b602060405180830381855afa158015610894573d6000803e3d6000fd5b5050506040513d601f19601f820116820180604052508101906108b79190611749565b6002826040516020016108ca919061169e565b6040516020818303038152906040526040516108e691906116fc565b602060405180830381855afa158015610903573d6000803e3d6000fd5b5050506040513d601f19601f820116820180604052508101906109269190611749565b0361099957600260009054906101000a900473ffffffffffffffffffffffffffffffffffffffff1673ffffffffffffffffffffffffffffffffffffffff166108fc349081150290604051600060405180830381858888f19350505050158015610993573d6000803e3d6000fd5b506109d4565b6040517f08c379a00000000000000000000000000000000000000000000000000000000081526004016109cb906119eb565b60405180910390fd5b5b5b6001600460008282546109e9919061162e565b925050819055506004547fa218adab91868fa076ed6f246e9c9cb94aa1a01da578970a22d3bd2d2dc65cc160405160405180910390a25050565b60008060008060008054906101000a900473ffffffffffffffffffffffffffffffffffffffff1673ffffffffffffffffffffffffffffffffffffffff1631600160009054906101000a900473ffffffffffffffffffffffffffffffffffffffff1673ffffffffffffffffffffffffffffffffffffffff1631600260009054906101000a900473ffffffffffffffffffffffffffffffffffffffff1673ffffffffffffffffffffffffffffffffffffffff1631600260009054906101000a900473ffffffffffffffffffffffffffffffffffffffff1673ffffffffffffffffffffffffffffffffffffffff1631600160009054906101000a900473ffffffffffffffffffffffffffffffffffffffff1673ffffffffffffffffffffffffffffffffffffffff163160008054906101000a900473ffffffffffffffffffffffffffffffffffffffff1673ffffffffffffffffffffffffffffffffffffffff1631610b8b919061162e565b610b95919061162e565b935093509350935090919293565b606080600360008473ffffffffffffffffffffffffffffffffffffffff1673ffffffffffffffffffffffffffffffffffffffff16815260200190815260200160002060020160009054906101000a900460ff16610c35576040517f08c379a0000000000000000000000000000000000000000000000000000000008152600401610c2c90611a57565b60405180910390fd5b600360008473ffffffffffffffffffffffffffffffffffffffff1673ffffffffffffffffffffffffffffffffffffffff168152602001908152602001600020600001600360008573ffffffffffffffffffffffffffffffffffffffff1673ffffffffffffffffffffffffffffffffffffffff168152602001908152602001600020600101818054610cc590611350565b80601f0160208091040260200160405190810160405280929190818152602001828054610cf190611350565b8015610d3e5780601f10610d1357610100808354040283529160200191610d3e565b820191906000526020600020905b815481529060010190602001808311610d2157829003601f168201915b50505050509150808054610d5190611350565b80601f0160208091040260200160405190810160405280929190818152602001828054610d7d90611350565b8015610dca5780601f10610d9f57610100808354040283529160200191610dca565b820191906000526020600020905b815481529060010190602001808311610dad57829003601f168201915b5050505050905091509150915091565b6000604051905090565b600080fd5b600080fd5b600080fd5b600080fd5b6000601f19601f8301169050919050565b7f4e487b7100000000000000000000000000000000000000000000000000000000600052604160045260246000fd5b610e4182610df8565b810181811067ffffffffffffffff82111715610e6057610e5f610e09565b5b80604052505050565b6000610e73610dda565b9050610e7f8282610e38565b919050565b600067ffffffffffffffff821115610e9f57610e9e610e09565b5b610ea882610df8565b9050602081019050919050565b82818337600083830152505050565b6000610ed7610ed284610e84565b610e69565b905082815260208101848484011115610ef357610ef2610df3565b5b610efe848285610eb5565b509392505050565b600082601f830112610f1b57610f1a610dee565b5b8135610f2b848260208601610ec4565b91505092915050565b60008060408385031215610f4b57610f4a610de4565b5b600083013567ffffffffffffffff811115610f6957610f68610de9565b5b610f7585828601610f06565b925050602083013567ffffffffffffffff811115610f9657610f95610de9565b5b610fa285828601610f06565b9150509250929050565b6000819050919050565b610fbf81610fac565b82525050565b6000608082019050610fda6000830187610fb6565b610fe76020830186610fb6565b610ff46040830185610fb6565b6110016060830184610fb6565b95945050505050565b600073ffffffffffffffffffffffffffffffffffffffff82169050919050565b60006110358261100a565b9050919050565b6110458161102a565b811461105057600080fd5b50565b6000813590506110628161103c565b92915050565b60006020828403121561107e5761107d610de4565b5b600061108c84828501611053565b91505092915050565b600081519050919050565b600082825260208201905092915050565b60005b838110156110cf5780820151818401526020810190506110b4565b60008484015250505050565b60006110e682611095565b6110f081856110a0565b93506111008185602086016110b1565b61110981610df8565b840191505092915050565b6000604082019050818103600083015261112e81856110db565b9050818103602083015261114281846110db565b90509392505050565b7f416c726561647920726567697374657265642100000000000000000000000000600082015250565b60006111816013836110a0565b915061118c8261114b565b602082019050919050565b600060208201905081810360008301526111b081611174565b9050919050565b7f46756e64726169736572206163636f756e742063616e206e6f7420726567697360008201527f746572206173206120646f6e6f722e0000000000000000000000000000000000602082015250565b6000611213602f836110a0565b915061121e826111b7565b604082019050919050565b6000602082019050818103600083015261124281611206565b9050919050565b7f4e616d65206d7573742062652070726f76696465642e00000000000000000000600082015250565b600061127f6016836110a0565b915061128a82611249565b602082019050919050565b600060208201905081810360008301526112ae81611272565b9050919050565b7f50726f76696465206d6f62696c65206e756d6265720000000000000000000000600082015250565b60006112eb6015836110a0565b91506112f6826112b5565b602082019050919050565b6000602082019050818103600083015261131a816112de565b9050919050565b7f4e487b7100000000000000000000000000000000000000000000000000000000600052602260045260246000fd5b6000600282049050600182168061136857607f821691505b60208210810361137b5761137a611321565b5b50919050565b60008190508160005260206000209050919050565b60006020601f8301049050919050565b600082821b905092915050565b6000600883026113e37fffffffffffffffffffffffffffffffffffffffffffffffffffffffffffffffff826113a6565b6113ed86836113a6565b95508019841693508086168417925050509392505050565b6000819050919050565b600061142a61142561142084610fac565b611405565b610fac565b9050919050565b6000819050919050565b6114448361140f565b61145861145082611431565b8484546113b3565b825550505050565b600090565b61146d611460565b61147881848461143b565b505050565b5b8181101561149c57611491600082611465565b60018101905061147e565b5050565b601f8211156114e1576114b281611381565b6114bb84611396565b810160208510156114ca578190505b6114de6114d685611396565b83018261147d565b50505b505050565b600082821c905092915050565b6000611504600019846008026114e6565b1980831691505092915050565b600061151d83836114f3565b9150826002028217905092915050565b61153682611095565b67ffffffffffffffff81111561154f5761154e610e09565b5b6115598254611350565b6115648282856114a0565b600060209050601f8311600181146115975760008415611585578287015190505b61158f8582611511565b8655506115f7565b601f1984166115a586611381565b60005b828110156115cd578489015182556001820191506020850194506020810190506115a8565b868310156115ea57848901516115e6601f8916826114f3565b8355505b6001600288020188555050505b505050505050565b7f4e487b7100000000000000000000000000000000000000000000000000000000600052601160045260246000fd5b600061163982610fac565b915061164483610fac565b925082820190508082111561165c5761165b6115ff565b5b92915050565b600081905092915050565b600061167882611095565b6116828185611662565b93506116928185602086016110b1565b80840191505092915050565b60006116aa828461166d565b915081905092915050565b600081519050919050565b600081905092915050565b60006116d6826116b5565b6116e081856116c0565b93506116f08185602086016110b1565b80840191505092915050565b600061170882846116cb565b915081905092915050565b6000819050919050565b61172681611713565b811461173157600080fd5b50565b6000815190506117438161171d565b92915050565b60006020828403121561175f5761175e610de4565b5b600061176d84828501611734565b91505092915050565b6000815461178381611350565b61178d8186611662565b945060018216600081146117a857600181146117bd576117f0565b60ff19831686528115158202860193506117f0565b6117c685611381565b60005b838110156117e8578154818901526001820191506020810190506117c9565b838801955050505b50505092915050565b60006118058284611776565b915081905092915050565b7f4d6f62696c65206e756d62657220646f65736e2774206d617463682100000000600082015250565b6000611846601c836110a0565b915061185182611810565b602082019050919050565b6000602082019050818103600083015261187581611839565b9050919050565b7f73796c6865740000000000000000000000000000000000000000000000000000600082015250565b60006118b2600683611662565b91506118bd8261187c565b600682019050919050565b60006118d3826118a5565b9150819050919050565b7f636869747461676f6e675f736f75746800000000000000000000000000000000600082015250565b6000611913601083611662565b915061191e826118dd565b601082019050919050565b600061193482611906565b9150819050919050565b7f636869747461676f6e675f6e6f72746800000000000000000000000000000000600082015250565b6000611974601083611662565b915061197f8261193e565b601082019050919050565b600061199582611967565b9150819050919050565b7f496e76616c6964207a6f6e650000000000000000000000000000000000000000600082015250565b60006119d5600c836110a0565b91506119e08261199f565b602082019050919050565b60006020820190508181036000830152611a04816119c8565b9050919050565b7f496e76616c696420646f6e6f722e000000000000000000000000000000000000600082015250565b6000611a41600e836110a0565b9150611a4c82611a0b565b602082019050919050565b60006020820190508181036000830152611a7081611a34565b905091905056fea2646970667358221220d3f3eacb9c9044803547c8cd90862df818aadba3498e80b6fc39c2812503366464736f6c63430008100033",
  "immutableReferences": {},
  "source": "// SPDX-License-Identifier: GPL-3.0\r\npragma solidity >=0.8.2 <0.9.0;\r\n\r\ncontract fundForFloodVictims {\r\n    address payable private accountSylhet; //fundraiser for sylhet zone\r\n    address payable private accountChittagongSouth; //fundraiser for ctg south zone\r\n    address payable private accountChittagongNorth; //fundraiser for ctg north zone\r\n\r\n    struct Donor {\r\n        //struct for donor\r\n        string name;\r\n        string mobile;\r\n        bool registrationStatus;\r\n    }\r\n\r\n    mapping(address => Donor) private donors; //to store donor info based on eth add\r\n\r\n    // to capture events\r\n    event occurEvent(uint indexed _candidateId);\r\n    uint private count;\r\n\r\n    // fundraiser accounts with predefined addresses from ganache\r\n    constructor() {\r\n        accountSylhet = payable(0xeEEee2Ac81bE99e404727e74dD760A4b9E373321);\r\n        accountChittagongSouth = payable(\r\n            0x8a0dC8B5604292c301b410C15b5F6A965DDb0c32\r\n        );\r\n        accountChittagongNorth = payable(\r\n            0x732f350E3556c44463a0F6adF8D6c4156E593B28\r\n        );\r\n\r\n        count = 0;\r\n    }\r\n\r\n    // donor registration\r\n    function DonorRegistration(\r\n        string memory name,\r\n        string memory mobile\r\n    ) public {\r\n        address addr = msg.sender;\r\n\r\n        require(!donors[addr].registrationStatus, \"Already registered!\");\r\n        require(\r\n            addr != accountSylhet &&\r\n                addr != accountChittagongSouth &&\r\n                addr != accountChittagongNorth,\r\n            \"Fundraiser account can not register as a donor.\"\r\n        );\r\n        require(bytes(name).length > 0, \"Name must be provided.\");\r\n        require(bytes(mobile).length > 0, \"Provide mobile number\");\r\n\r\n        donors[addr] = Donor({\r\n            name: name,\r\n            mobile: mobile,\r\n            registrationStatus: true\r\n        });\r\n\r\n        count += 1;\r\n        emit occurEvent(count);\r\n    }\r\n\r\n    // make donation\r\n    function Donate(string memory mobile, string memory zone) public payable {\r\n        require(\r\n            sha256(abi.encodePacked(donors[msg.sender].mobile)) ==\r\n                sha256(abi.encodePacked(mobile)),\r\n            \"Mobile number doesn't match!\"\r\n        );\r\n\r\n        if (\r\n            sha256(abi.encodePacked(zone)) == sha256(abi.encodePacked(\"sylhet\"))\r\n        ) {\r\n            accountSylhet.transfer(msg.value);\r\n        } else if (\r\n            sha256(abi.encodePacked(zone)) ==\r\n            sha256(abi.encodePacked(\"chittagong_south\"))\r\n        ) {\r\n            accountChittagongSouth.transfer(msg.value);\r\n        } else if (\r\n            sha256(abi.encodePacked(zone)) ==\r\n            sha256(abi.encodePacked(\"chittagong_north\"))\r\n        ) {\r\n            accountChittagongNorth.transfer(msg.value);\r\n        } else {\r\n            revert(\"Invalid zone\");\r\n        }\r\n\r\n        count += 1;\r\n        emit occurEvent(count);\r\n    }\r\n\r\n    // total donation\r\n    function getDonationInfo() public view returns (uint, uint, uint, uint) {\r\n        return (\r\n            accountSylhet.balance,\r\n            accountChittagongSouth.balance,\r\n            accountChittagongNorth.balance,\r\n            accountSylhet.balance +\r\n                accountChittagongSouth.balance +\r\n                accountChittagongNorth.balance\r\n        );\r\n    }\r\n\r\n    //donor info\r\n    function getDonorInfo(\r\n        address addr\r\n    ) public view returns (string memory, string memory) {\r\n        require(donors[addr].registrationStatus, \"Invalid donor.\");\r\n        return (donors[addr].name, donors[addr].mobile);\r\n    }\r\n}\r\n",
  "sourcePath": "/home/gtfahad/Documents/CSE446/Lab Project/floodDonation/contracts/fundForFloodVictims.sol",
  "compiler": {
    "name": "solc",
    "version": "0.8.16+commit.07a7930e.Emscripten.clang"
  },
  "schemaVersion": "3.4.16",
  "updatedAt": "2024-09-22T07:33:19.045Z",
  "networkType": "ethereum",
  "devdoc": {
    "kind": "dev",
    "methods": {},
    "version": 1
  },
  "userdoc": {
    "kind": "user",
    "methods": {},
    "version": 1
  }
}